:020000040000FA
:020000000528D1
:040002000034003492
:080008000528210003308F00E0
:1000100000308D0000308E0022008F1500308D00E2
:100020001220102820000F1C1B280F191A281E2030
:1000300022000F15080022000F111A282820200086
:100040000F082200F000F01C8D0AF0188D03080044
:1000500020008F183328220078300D06F000F00FB2
:10006000332800308D0020008F1C42282200FF30F2
:100070000D06F000F00F3E2887308D0084308E0092
:0600800000308E000800B4
:020000040001F9
:02000E00E20905
:02001000FF1CD3
:00000001FF
